:020000040800F2
:1000000000000220C9030008C5030008352A0008C3
:10001000C5030008C5030008C50300080000000070
:10002000000000000000000000000000C503000800
:10003000C503000800000000C5030008B929000836
:10004000C5030008C5030008C5030008C503000870
:10005000C5030008C5030008C5030008C503000860
:10006000C5030008C5030008C50300085927000898
:100070006527000891130008712700087D270008F4
:10008000D9E10008311C0008C5030008C5030008B9
:10009000C5030008C5030008C5030008C503000820
:1000A000C5030008C5030008C5030008C503000810
:1000B0004DD5000859D5000865D50008611C000819
:1000C000C50300086D1C0008C503000805CE000824
:1000D00011CE0008EDDF00081DE0000855E0000823
:1000E000C5030008C503000800000000C5030008A0
:1000F000C5030008C5030008C5030008C5030008C0
:10010000C5030008C503000871D500081DCE00080E
:100110008DE00008C5E0000831160008C50300089E
:10012000191600082516000841CE000875CE0008F3
:100130000DE20008C5030008C5030008C503000858
:1001400000000000000000000000000000000000AF
:10015000C5030008C5030008C5030008FDE000084A
:10016000791C0008C5030008C9290008ED2900080A
:10017000C5030008112A0008C5030008C5030008CC
:10018000C5030008C503000835E1000869E100085F
:1001900029CE000835CE0008C5030008C5030008B5
:1001A000C5030008C5030008C5030008C50300080F
:1001B000D1230008C5030008C5030008C5030008D3
:1001C000C5030008C5030008E50E0008F10E00088D
:1001D000C5030008FD0E0008C5030008C50300089C
:1001E000C5030008C5030008C5030008C5030008CF
:1001F000C5030008C5030008C5030008C5030008BF
:10020000C5030008C5030008C5030008C5030008AE
:10021000C5030008C5030008C5030008C50300089E
:10022000C5030008C5030008C5030008000000005E
:10023000C5030008C503000800000000C50300084E
:10024000C5030008C5030008C5030008C50300086E
:10025000C5030008C5030008C5030008C50300085E
:10026000C5030008C5030008C5030008C50300084E
:10027000C5030008C5030008A1E100080000000054
:10028000C5030008C5030008C503000800000000FE
:0802900000000000C503000896
:1002A000034613F8012B002AFBD1181A01387047B6
:1002B00001F0FF01102A2BDB10F0070F08D010F817
:1002C000013B013A8B422DD010F0070F42B3F6D11B
:1002D000F0B441EA012141EA014122F007047FF034
:1002E00000070023F0E80256083C85EA010586EA8B
:1002F000010685FA47F5A3FA87F586FA47F6A5FAC7
:1003000087F68EB9EED1F0BC01F0FF0102F00702D2
:1003100032B110F8013B013A83EA010313B1F8D17D
:100320000020704701387047002D06BF354603385E
:10033000073815F0010F07D1013015F4807F02BF97
:10034000013015F4C03F0130F0BC0138704700BFE8
:1003500053B94AB9002908BF00281CBF4FF0FF312C
:100360004FF0FF3000F00CB8ADF1080C6DE904CE91
:1003700010F03AFFDDF804E0DDE9022304B0704735
:10038000704700BF10B5054C237833B9044B13B147
:100390000448AFF300800123237010BD0806002439
:1003A000000000006C18010808B5034B1BB103499D
:1003B0000348AFF3008008BD000000000C060024D5
:1003C0006C180108FEE700BF0B480C4A904203D0AE
:1003D000121A0B490FF0D5FF0A480B4A904203D07E
:1003E000121A00210FF048FF02F046FD0FF0A2FFA5
:1003F00000F00EF8FEE700BF00000024080600240D
:10040000A0180108080600248C6C0024704700BF67
:1004100030B595B0002400212648012500F0E6F80B
:1004200008A92548CDE90944CDE90B5401F00EF99E
:10043000204600F091FC214800F02AFC1C2000F02E
:1004400057F8ADF804009FED1E0A224601990DA849
:1004500000F0F8FB152000F04BF8ADF80800029909
:1004600003A800F051FD04232A4603A9154800F013
:1004700059FD144800F022FF134800F009FC0A203F
:1004800002F048FB00210F4800F02CFF01460F4806
:1004900000F0FEFB0022084824B11146002401F0C0
:1004A00053F9ECE7214640F6FF720348012401F0BE
:1004B0004BF9E4E72406002444060024381501081B
:1004C00000007A443C0600244C1501086815010818
:1004D00004480023044A05490360436103620FF0A6
:1004E0008DBC00BF24060024000000240D04000879
:1004F000202882B009D8084B03EB400213F81030D3
:10050000507843EA002002B0704701230C2043EAF0
:10051000002002B0704700BF20160108F0B5032389
:1005200099B001250027064609A80E97CDE9123596
:100530002A4B0F9340F20453ADF84030284BCDE9DD
:100540001475099301F038F909A801F013FA00288D
:1005500036D1244B04AF04460790CDF84230102327
:10056000394600908DF820301F4B04950593069571
:10057000CDE91650684601F085FB0823009A01A9D1
:1005800009A8ADF804508DF806400994029503932C
:1005900000F0D4F800230EA938463024049302F06A
:1005A000F3F803224FF07E5309A906F114000B93D0
:1005B0000C93CDE90942049A00F0F4FA19B0F0BDA9
:1005C00040F60132074B169704AFADF82420099886
:1005D000CDF84230179500F073F8DBE7040204040D
:1005E00003030001040604030704010BF0B5324BBA
:1005F0000446324D40F201120126271D2DED028BDB
:10060000456083B0A36003F58133ADF8042040F268
:10061000027203F5807300202682E36040F60663D1
:1006200084F8276084F82B60A4F82520A4F82930EA
:1006300000918DF8060002F0D5FB68BB694604F115
:10064000300002F02DFB3946204601F049FD04F14F
:10065000250001F0B1F804F1290001F0ADF804F132
:10066000120000F08DF904F114052046FFF756FF43
:10067000284600F0D3FA2846B0EE408A00F0CAFAC5
:10068000D0ED007AF8EE677A88EE277A84ED0E7A5C
:1006900003B0BDEC028BF0BD0546694604F13000A5
:1006A0008DF8066002F0FCFA072DDCD039462046B2
:1006B00001F016FDD7E700BF050705060508050987
:1006C00010B584B00346012403A8ADF80C30ADF892
:1006D0000E4001F071F8214603A801F059F92046B7
:1006E00002F018FA002103A801F052F9204602F0A6
:1006F00011FA214603A801F04BF904B010BD00BF68
:1007000010B5C2F3002384B00C46017C8DF80D2097
:1007100043EA4402FA2402238DF80C2003AA009431
:1007200001F040FB18B10124204604B010BD04467E
:100730000A2002F0EFF9204604B010BD034670B560
:1007400043F8042B044684B0FA2507C983E8070060
:10075000A1791E23009503AA1A31ADF80C3020466A
:100760000223C9B2217401F01DFB10B1012004B0B5
:1007700070BD0A2002F0CEF94FF4B8520095022362
:10078000ADF80C20204603AA217C01F00BFB0028C9
:10079000ECD10A2002F0BEF941F202720095022368
:1007A000ADF80C20204603AA217C01F0FBFA0028BA
:1007B000DCD10A2002F0AEF9042200950223ADF844
:1007C0000C20204603AA217C01F0ECFA0028CDD1B0
:1007D0000A2002F09FF9062200950223ADF80C20B2
:1007E000204603AA217C01F0DDFA0028BED10A20B0
:1007F00002F090F941F2082200950223ADF80C2096
:10080000204603AA217C01F0CDFA0028AED10A20AF
:100810000A2602F07FF90095022303AA217C2046D4
:10082000ADF80C6001F0BEFA00289FD1304602F00E
:1008300071F923790C220095002B217C8DF80C2076
:10084000204614BF622342236A448DF80D300223F0
:1008500001F0A8FA002889D1304602F05BF9A368BC
:1008600000952046E268217C13432279DBB282F0B6
:10087000010243EA82136279524202F020021343DA
:100880000E228DF80D3002238DF80C2003AA01F002
:1008900089FA00287FF46AAF304602F03BF9102253
:1008A00000950223ADF80C20204603AA217C01F01C
:1008B00079FA00287FF45AAF304602F02BF9122162
:1008C00000950223ADF80C1003AA217C204601F00C
:1008D00069FA00287FF44AAF304602F01BF9012282
:1008E00009212046FFF70CFF003818BF01203EE722
:1008F000F0B5214D87B000240126102702A94FF43E
:10090000805228460194CDE90267CDE9046409F0DC
:100910006BFD642003F0B8F8022302A94FF4805263
:10092000284602930594CDE9037609F05DFD042382
:1009300002A94FF4805228460397CDE904340323DB
:10094000029309F051FD40F23223042202A9284605
:10095000019310230496CDE90223019B4FF48052AA
:10096000059309F041FD40F60601284609F05CFDBB
:10097000204607B0F0BD00BF6C0600240000000058
:1009800070B51F4B88B008221E4E00214FF4006442
:100990001A614FF0020C03920A225E602026069232
:1009A0004022054699600320196210215C620124EF
:1009B000C3E905624FF4C072DC60DA6107229FED83
:1009C0000E7BCDE900C20422CDE904016946181D61
:1009D000029283ED0A7B09F0DDFC38B92846FFF767
:1009E00087FF003818BF012008B070BD204608B04E
:1009F00070BD00BFAFF300800010000000000000D9
:100A000068060024404100525E4A0023F0B5146895
:100A10008FB00A93002C40F0B2805B4B012103267B
:100A20000C2511600227D3F8D420584842F4805294
:100A3000C3F8D420D3F8D42002F480520092009A54
:100A4000D3F8E02042F01002C3F8E020D3F8E02011
:100A500002F010020192019AD3F8E02042F0400225
:100A6000C3F8E020D3F8E02002F040020292029A9C
:100A7000D3F8E02042F00802C3F8E020D3F8E020E9
:100A800002F008020392039AD3F8E02042F4807245
:100A9000C3F8E020D3F8E02002F480720492049AB4
:100AA000D3F8E02042F08002C3F8E020D3F8E02041
:100AB00002F080020592059AD3F8E02042F020026D
:100AC000C3F8E020D3F8E02002F020020692069A54
:100AD000D3F8E02042F00402C3F8E0204FF683721E
:100AE000D3F8E0300B9603F004030C950793022330
:100AF000079908A9CDE9082304F006FE48F2371348
:100B000008A9234808930C950997CDE90A4604F0F3
:100B1000FBFD4CF2037308A91E480893CDE9097444
:100B2000CDE90B6504F0F0FD40F2FF6308A91A4817
:100B30000893CDE90974CDE90B6504F0E5FD4FF6A6
:100B40000C7308A915480893CDE90974CDE90B6524
:100B500004F0DAFD4FF63F0308A911480893CDE9E8
:100B60000974CDE90B6504F0CFFD202308A90B48DB
:100B700009970C950893CDE90A4604F0C5FD0FB01E
:100B8000F0BD00BF60060024004402580010025867
:100B900000180258000C025800200258001C02588D
:100BA0000014025830B5184C154685B0046004F1A5
:100BB000080EEC460FC98EE80F00D4ED047AF5EE6E
:100BC000C07A8CE80F00F1EE10FA1ADDB7EE006A79
:100BD00094ED057A27EE277AC6EE276A84ED0D7A22
:100BE000C4ED0C6A6DB1204640F8185F01F0CEFEEE
:100BF000064903690020064A2162A262E36005B04B
:100C000030BD012005B030BDA0060024002000301A
:100C10000000003000680830704700BF00681830DE
:100C200001F0B6BE064B302003214FF07E52C3E9DF
:100C30000201002000211A615A61C3E906017047D0
:100C4000A006002470B52DED028B82B0044601266B
:100C5000B0EE408AADF804101730BDF804301546E8
:100C60006676A4F8173000F0A7FD00230022257552
:100C700084ED048AA260C4E900330DB14FF480769C
:100C8000A4F8156002B0BDEC028B70BD704700BFC8
:100C90000FB4F0B583B02C4C2C4E08AB206853F841
:100CA000042BC0F18001304401930FF0D7FA236880
:100CB000C01827D0321800E020B312F8013D0146D9
:100CC00001380D2B18BF0A2BF6D08D1C7F2D33D980
:100CD00042F224428023A6F87E201D461C4E23604B
:100CE0003368012B19D82A4618491A4800F0F0F841
:100CF000E8B9336820600133336003B0BDE8F040E9
:100D000004B070470A230D227370022332701D460F
:100D10000F4E23603368012BE5D90C4F0D4E2A4648
:100D20003946304600F0D4F80028F8D1206003B0EE
:100D3000BDE8F04004B070470D230A2273540E44FE
:100D40002B467270E4E700BFE4060024E8060024A6
:100D5000E0060024DC06002410B504460021084803
:100D600000F030F8074B640007481C60FFF790FF65
:100D70000648FFF78DFF0A20BDE8104001F0CABE0B
:100D8000DC060024E006002474150108841501081F
:100D900038B5074D074C2A46074821460FF02EF874
:100DA0002A4621460548BDE838400FF027B800BF65
:100DB000000000248D0C0008DC060024D806002466
:100DC000704700BF012910B526D002290AD0F9B911
:100DD000364B0A46364C374937481C600AF0AEFF9E
:100DE00038B1FEE70122354935480AF0A7FF00B3C4
:100DF000FEE7344930480AF0C3FF00BB32492E48B1
:100E00000AF050FFE0B92C480AF0D0FF002839D191
:100E1000BDE8104006F0E0BC0A46294827490AF020
:100E20008DFF00B1FEE7274925480AF0A9FF70B100
:100E3000FEE7244922480AF0A3FF10B1FEE7FEE7CF
:100E4000FEE722491E480AF02DFF60B1FEE71F4968
:100E50001B480AF027FF00B1FEE719480AF0A6FF79
:100E60000028D5D0FEE716480AF0A0FF024640B998
:100E70000E4B0F4C0F4910481C600AF05FFF10B179
:100E8000FEE7FEE7FEE70F490B480AF079FF00B1E5
:100E9000FEE70D4908480AF005FF00B1FEE70648E5
:100EA0000AF084FF0028B3D0FEE700BF68070024E3
:100EB000C10D0008E800002470070024B8000024D9
:100EC0000C0A002440020024740000246400002462
:100ED000084691B208B502F0C1F8003818BF0120E9
:100EE00008BD00BF014805F0E7BE00BFF83C002484
:100EF000014805F0E1BE00BFF83C0024014805F0C0
:100F0000DBBE00BFF83C002482B04FF0000C03238E
:100F1000ADF80410BDF8042080F810C002804380B2
:100F200002B070472DE9F04F4FF00008DFF818933A
:100F3000BB4C8DB003700646BA4B174642600D4657
:100F4000202241464846C4F85831C4F85491CDE9AE
:100F50000288CDE90488CDE90688CDE90888CDE985
:100F60000A880FF089F92022414604F59970C4F8E7
:100F70002181C4F82581C4F82981C4F82D810FF09E
:100F80007BF984F82071736884F83882002B00F0B4
:100F900063814346484604F5907105F1100AC64640
:100FA0000197EF1855F803B0E2180EF1010ED7F8CB
:100FB0000CC0D7F80490D7F8088044F803B0C2F802
:100FC0000CC04FF0000CC2F80490C2F808803F7CBF
:100FD00020F802CB17741AF8032001F8012F62B130
:100FE00072684FF001071133964584F83872D8D3F0
:100FF000019F00220123FFB20CE07768113377458F
:10100000CFD894F83832019F002BFFB206BF0122DF
:101010000323012384F8712100203278C4F8883139
:1010200000238149C4F8643184F8703184F8783140
:10103000C4F87471C4E963334FF48023C4E95713CF
:1010400008210123C4E95A310021C4E960017AB1C1
:1010500000200121013A84F89431C4E96801082A8A
:1010600008D8DFE802F0A9A49F9A95908A837C00B3
:1010700084F894216D4803F0FFF8034608B1FFBEE1
:10108000FEE702A96948029303F052FA002864D1EE
:10109000022240F2FF730A90CDE90723042294F85C
:1010A00020310992002B00F0DB80DFF8A0A1074679
:1010B000DFF89C81AAF586760AF14C0922E0022B22
:1010C0007FD0012B40F0DB8016F8033C012B00F0B1
:1010D000A580002B564B18BF0023059305A958F88F
:1010E000043B4846069302F033FD002840F0BB80E5
:1010F000013794F820210AF1010A1136FBB29A4215
:1011000040F2AE80301F00F057FB337B042B69DCCC
:10111000022B7BDC76D000238AF8003016F8043CE2
:10112000002BCCD116F8033C062B73D0072B00F014
:10113000A280022B00F0A180032B00F0A280002BE4
:1011400000F0A380012B00F09E80042B00F09F8014
:10115000052B384B18BF0023BFE7FFBEFEE740F268
:10116000FF324FF4A073C4E9662383E740F2FF1215
:101170004FF49073C4E966237CE7FF224FF4807339
:10118000C4E9662376E77F22E023C4E9662371E79A
:101190003F22C023C4E966236CE71F22A023C4E9D1
:1011A000662367E70F228023C4E9662362E70722EC
:1011B0006023C4E966235DE703224023C4E9662374
:1011C00058E716F8033C042B26D0052B42D0002B01
:1011D0004BD0012B4BD0022B4BD0032B164B18BFFF
:1011E00000237AE703238AF80030B34600255846E7
:1011F000013500F0E1FA9AF800300BF1040BAB4234
:10120000F5DC8BE701238AF80030EEE702238AF849
:101210000030EAE7094B60E7094B5EE7094B5CE702
:10122000A80C00244040003000200240040E00249E
:101230000002B0250000B84F002090360800900C46
:101240001000C0102000F01400400030B80D002441
:10125000641601080F4B40E7FFB201220323D9E6D1
:101260000DB0BDE8F08FFFBEFEE70B4B35E70B4B33
:1012700033E70B4B31E70B4B2FE70B4B2DE70023ED
:101280002BE70A4B29E70A4B27E70A4B25E70A4BCE
:1012900023E700BF000180210004002A0008302E4F
:1012A000001060328000501D0040C03A0080F03EC7
:1012B00000005247000021430000844B10B5084C49
:1012C00040F2FF724FF00111204603F0DFF814F8EE
:1012D0003C2C54F8081C2046BDE8104002F058BED3
:1012E000040E0024044B0F29D3F8543198BF03EBAC
:1012F00041031888704700BFA80C0024204B0268E7
:101300009A4200D070471F4B00221F48D3F8D810D4
:1013100030B51E4C41F0200183B0C4F8C001092053
:1013200004F5E075C4E97102C3F8D8104FF4806089
:10133000D3F8D81094F8383201F0200183F001037B
:1013400001911B02C4E973204FF40060C4F8DC3142
:10135000019B4FF40053C4F8D4012846C4F8D83197
:10136000C4E9782203F02AFC08B1FFBEFEE704F5C9
:10137000AE73C4F8A851C4F8F83103B030BD00BF53
:10138000002002400044025840000240A80C002403
:10139000014803F0A5BF00BF680E0024414B02685E
:1013A0009A4200D070472DE9F0473F4D95F838320A
:1013B0000BB9BDE8F08795F82021002A48D005F147
:1013C0000C0805F5997605F59077002414E003F0F4
:1013D00001013380A8F1080017F811AC00F0D8FA29
:1013E000BAF1010F23D895F82021013408F1110832
:1013F0000236A3B29A4229D917F8013F002BF4D044
:10140000D5F854310021327833F81400D5F858312A
:1014100003EB041323F8120033883A7801339BB2AC
:101420009A425FFA83F9D2D80B468946D1E7C9F3CD
:101430004001A8F1040000F0ABFABAF1020FC9F3C1
:101440008001D0D0404600F0A3FACCE795F83832BE
:1014500083F001031548092100221B024FF4806428
:10146000C5F8C821C5F8DC314FF40053C5F8CC21CC
:10147000C5F8D831C5E970014FF400610C48C5E9E1
:101480007441C5E9782203F099FB08B1FFBEFEE77D
:1014900095F82021D5F854110648BDE8F04702F030
:1014A00077BD00BF00200240A80C0024400002408D
:1014B000680E0024040E0024704700BF4F4B0268E2
:1014C0009A4200D070474E4BD3F8E81030B541F047
:1014D00000514C4C85B0D4F84821C3F8E810D3F83B
:1014E000E81001F0005101910199D3F8E01041F0AA
:1014F0000101C3F8E010D3F8E03003F001030293D8
:10150000029B32F002033ED0013A012A6BD9D4F893
:101510004C31012B0AD000223620114603F074F81A
:10152000362005B0BDE8304003F0AAB8D4F8483101
:1015300033F0020235D0013B012BECD800234422CA
:101540003149C4F89830C4F8B0304FF480632F4D5F
:10155000C4F89C304FF400532846C4E923124022BB
:10156000C4F894204FF40062C4E928234FF4807239
:101570004FF48033C4E92A2303F020FB80B9E560EF
:10158000C4F8C440C7E74FF48062032303A8ADF852
:101590000C208DF80E3000F00FF9D4F84821B3E795
:1015A000FEE743232262A2634022A3614FF48063DB
:1015B000E2614FF4006263624FF40053144D154929
:1015C00028466161C4E90A234FF480724FF48033E6
:1015D000C4E90C2303F0F2FA20B9D4F84831A5602D
:1015E000E464A8E7FEE74FF4A062032303A8ADF884
:1015F0000C208DF80E3000F0DFF888E70074004012
:1016000000440258E40E002428040240700F002415
:10161000F80E002410040240014803F061BE00BF30
:10162000F80E0024014803F05BBE00BF700F0024D9
:1016300010B5054C204603F00DF904F58270BDE8A5
:10164000104009F089B800BFE40E002430B58C4684
:101650003A4C3B4D8DB0046004F5A27EBCE80F000F
:10166000AEE80F00DCF8003020462560CEF80030F0
:1016700003F092F80023D4F84C510393B5B9022338
:1016800004930022D4F85431D4F848119B1A18BF9F
:101690000123CDE906225B0031F0020205932DD033
:1016A0000139012935D900200DB030BD1622012D98
:1016B0000492E6D1234A0093C4F80C31C4F8042103
:1016C000C4F81431C4F81C31CDE9013301F088FBB2
:1016D000D4F844314BF68031024604F58270C4F8E8
:1016E0000851002B08BF0B46B2FBF3F3C4F81031CE
:1016F00008F0B2FE0346B0B10120D5E703A90F48B8
:1017000003F0DCF80028F7D1D4F848110139012999
:10171000C9D8102203A9094803F0D0F8003818BF2F
:1017200001200DB030BD2022694604F5827002937D
:10173000009209F0C9F80028A3D0DDE7E40E0024E8
:1017400000740040001000402DE9F0410768D7F810
:101750004C6106BB0C46D7F850119046B1FA81F1A6
:1017600034F002034FEA51114FEAC10505D0013CA4
:10177000012C14D93046BDE8F081134631462A4683
:101780003846013C03F04CF83146384603F01AF86D
:10179000012CEFD803E001263046BDE8F081434636
:1017A0002A461021384603F03BF81021384603F052
:1017B00009F83046BDE8F0818378022B30B5044645
:1017C0008FB039D0032B00F0D180A3F10102B2FA1F
:1017D00082F25209E3780A92012B05D0A3F10203A9
:1017E000B3FA83F35B095B0000222046CDE90B329C
:1017F00002F028F80546204602F02CF823780990DC
:10180000082B13D8DFE803F02D405366798C9F0531
:101810001A00574BD3F8E02042F08002C3F8E020D2
:10182000D3F8E03003F080030793079B09A928460B
:1018300003F06AFF0FB030BD1122CBE74C4B09A972
:101840002846D3F8E02042F48072C3F8E020D3F8B1
:10185000E03003F480730893089B03F055FF0FB04A
:1018600030BD434B09A92846D3F8E02042F00102DD
:10187000C3F8E020D3F8E03003F001030093009BAD
:1018800003F042FF0FB030BD394B09A92846D3F809
:10189000E02042F00202C3F8E020D3F8E03003F089
:1018A00002030193019B03F02FFF0FB030BD304BBB
:1018B00009A92846D3F8E02042F00402C3F8E0204A
:1018C000D3F8E03003F004030293029B03F01CFF03
:1018D0000FB030BD264B09A92846D3F8E02042F0CE
:1018E0000802C3F8E020D3F8E03003F008030393C4
:1018F000039B03F009FF0FB030BD1D4B09A928461B
:10190000D3F8E02042F01002C3F8E020D3F8E03032
:1019100003F010030493049B03F0F6FE0FB030BDF8
:10192000134B09A92846D3F8E02042F02002C3F85F
:10193000E020D3F8E03003F020030593059B03F08B
:10194000E3FE0FB030BD0A4B09A92846D3F8E020CA
:1019500042F04002C3F8E020D3F8E03003F0400347
:101960000693069B03F0D0FE0FB030BD1A4631E758
:101970000044025838B5054601F064FF0446284685
:1019800001F068FF01462046BDE8384004F0F6B992
:1019900070B506460D4601F055FF0446304601F08D
:1019A00059FF2A1E0146204618BF0122BDE870409B
:1019B00004F0EAB970B5002386B0122204460393FE
:1019C000CDE901230368032B01D804230493261DCA
:1019D0000634304601F036FF0546304601F03AFF46
:1019E000034669462846009303F08EFE204601F028
:1019F00029FF034620461C4601F02CFF694603469A
:101A00002046009303F080FE06B070BD634A036871
:101A1000934210B58CB028D0614A934258D0614AA5
:101A2000934200F09480604A934201D00CB010BD04
:101A30005E4C5F48D4F8E03043F00203C4F8E03075
:101A4000D4F8E03003F002030A930A9BFFF7B2FFD9
:101A5000D4F8F43043F08003C4F8F430D4F8F43010
:101A600003F080030B930B9BE0E7504C5148D4F8F4
:101A7000E03043F00203C4F8E030D4F8E03003F083
:101A800002030193019BFFF795FFD4F8E830002291
:101A90001F2043F400131146C4F8E830D4F8E830AE
:101AA00003F400130293029BD4F8D83043F00103EF
:101AB000C4F8D830D4F8D83003F001030393039B63
:101AC00002F0A2FD1F200CB0BDE8104002F0D8BD0E
:101AD000364C3948D4F8E03043F08003C4F8E030A5
:101AE000D4F8E03003F080030493049BD4F8E03092
:101AF00043F00203C4F8E030D4F8E03003F002030E
:101B00000593059BFFF756FFD4F8E830002221200B
:101B100043F480031146C4F8E830D4F8E83003F405
:101B200080030693069BD4F8D83043F00103C4F831
:101B3000D830D4F8D83003F001030793079B02F0A4
:101B400063FD21200CB0BDE8104002F099BD1B4898
:101B5000FFF730FF154B00224820D3F8E84011462C
:101B600044F40004C3F8E840D3F8E84004F4000467
:101B70000894089CD3F8D84044F00104C3F8D84036
:101B8000D3F8D83003F001030993099B02F03CFD20
:101B900048200CB0BDE8104002F072BD0054004077
:101BA00000580040005C0040001C005800440258EF
:101BB000D812002450100024281100240012002400
:101BC000F0B5002287B0184B1021CDF802206F46E7
:101BD000CDF806209C46CDF80A206E46CDF80E20A2
:101BE0000CF11805CDF812200CF1300EADF81620CE
:101BF000FF220E4B6C46ADF800101A700FCFACE808
:101C00000F0097E803008CE803000FCE0FC596E89D
:101C1000030085E803000FCCAEE80F0094E8030052
:101C20008EE8030007B0F0BD040000244C1000242F
:101C300010B5EFF3108472B6074B1A78120602D56E
:101C400004B962B610BD1B78D820044A5BB200FB11
:101C5000032003F045FBF3E74C100024641000243C
:101C6000014804F015BF00BFDC100024014804F057
:101C70000FBF00BFB4110024014804F009BF00BF2A
:101C80008C1200242DE9F0410F68D8253C4E84B019
:101C900007FB05F5032F06EB0503036058DCCA6854
:101CA0000C46012A54D84FD020689C4661684FF0FA
:101CB000D808A2680DF1100EE36808FB0768ACE8CD
:101CC0000F00304B227C8CF80020D8F808C00FCBD6
:101CD0000EE90F000EEB8703BCF1010F53F8103C27
:101CE000C8F88C3042D0BCF1020F35D0BCF1000FE7
:101CF00008D101F073F8244B98420CBF234B244BBE
:101D0000C8F890308C35D823217C002203FB076370
:101D1000012035444900C3E926022846C3F894103F
:101D2000C3E92822C3E92A2204F0AAFC80B90146AB
:101D3000284604F0B9FE58B90146284604F0DEFEF4
:101D4000003818BF012004E00A7C103A672AABD99A
:101D5000012004B0BDE8F08101F040F80A4B984240
:101D60000CBF0C4B0C4BC8F89030CBE701F036F8A9
:101D7000054B98420CBF094B094BC8F89030C1E79E
:101D80005010002404150108000E27075F439060DF
:101D90008A62E030200BA0101A0980102D0FB0309D
:101DA0003211D0202DE9F041D0F8008082B00D46EC
:101DB00017461E4608F18C04204604F071FE2028C8
:101DC000FAD1D8F80C3073B96D002046089C334620
:101DD0003A46A9B2009404F0A9FC003818BF0120CB
:101DE00002B0BDE8F081089B32463946204604F037
:101DF00069FDF2E7044B10221A7483F8E82083F897
:101E0000C02183F8982270475010002430B5002379
:101E100095B04FF48071062204460B9306921393FB
:101E2000CDE90C13CDE90E33CDE9113300F0DAFF23
:101E300007282AD004F1100541F2883206A9284665
:101E400005F022FE28B1012384F85C30012015B092
:101E500030BD0223102206A9284602920022CDE9B5
:101E60000033012303934FF48003CDE904230522BB
:101E70004FF0807306926A460F9341F2883305F063
:101E800093FF0028DFD115B030BD032384F85C3008
:101E9000DCE700BF0000000070B50023A4B04FF0E5
:101EA00080724FF480750446ADF806301B93CDE97F
:101EB0001E320122CDE91C53CDE92023CDE9223386
:101EC000002942D0F02300F1100516AEADF806301F
:101ED000C02341F2883231462846169305F0D4FDDE
:101EE00028B1012384F85C30012024B070BD41F298
:101EF00088320DF10601284605F034FE034600281D
:101F0000EFD14FF480710522284601250892102256
:101F100010930D93159302930595CDE90E139FED44
:101F20001E7B4FF08071CDE91333119141F288335C
:101F300008A9CDE9035202AA8DED067B05F034FF16
:101F40000028D2D084F85C50CEE700F1100516AE20
:101F5000612341F2883231462846169305F094FDFC
:101F60000028BED141F288320DF10601284605F065
:101F700087FE0028B5D1BDF80630204623F078034F
:101F800043F04003ADF80630FFF740FF00289FD034
:101F9000A7E700BFAFF30080000000000000400092
:101FA0002DE9F04F00234FF4807601254FF0807823
:101FB00004462DED028BABB08DF8073021931393BF
:101FC0001B9322961C95CDF89480CDE92333CDE95F
:101FD0002653CDE92833CDE91463CDE91633CDE995
:101FE000193306230E9300F0FDFE072808D004F1F4
:101FF000100741F288320EA9384605F045FD40B180
:10200000012384F85C3001202BB0BDEC028BBDE8CD
:10201000F08F02234FF010094FF0050A08AA0EA90D
:1020200038460B95CDF85C80CDF82890CDF838A0D7
:102030009FED298BCDE9083341F288338DED0C8B70
:1020400005F0B2FE0028DBD141F2883238461CA9E7
:1020500005F01AFD0028D3D14FF0400B41F2883231
:102060000DF1070138468DF807B005F07BFD00281B
:10207000C6D141F288331CA902AA3846CDF870A017
:10208000CDF89480CDE902BBCDE904958DED068BAA
:1020900005F08AFE03460028B2D1139308AA1B93C9
:1020A0000EA938461496CDF838A0CDF85C80CDF84E
:1020B00028900B95CDE91533CDE91933CDE90835D5
:1020C00041F288338DED0C8B05F06EFE00289BD01D
:1020D00084F85C5097E700BF00000000000040005B
:1020E0002DE9F0435C4CA3B00E46046000F07AFE8C
:1020F000072800F0A480306825467168B26807C5DB
:10210000B389284620F8043B267B677B05F09EFCBC
:10211000E0B9524B012E4FF00108E06123610CBF82
:102120004FF400034FF48013C4E9058893FAA3F336
:10213000B3FA83F34FF48079013BC4F82490C4E9E7
:102140000B00281D236205F013FC38B1012384F82D
:102150005C300126304623B0BDE8F08366230B9047
:10216000139041F2883206A90693CDE90C90CDE98F
:102170000E00CDE91100281D05F086FC0028E5D1F0
:10218000992341F2883206A9281D069305F07CFCAC
:102190000028DBD105231C9019906A4614934FF058
:1021A0008073219014A91D931023CDF80C80029305
:1021B00041F288339FED247BCDE91A90CDE91F00D1
:1021C000CDE90008281D8DED047B05F0EDFD00280C
:1021D000BCD131462046FFF75FFE0028B6D120462D
:1021E000FFF7DEFE06460028B0D1002FB2D1EB2368
:1021F00006AA14A9281D14934FF44063CDF86890E3
:102200001B934FF40053189617934FF440431C93BD
:10221000A0231693062319934FF080539FED0C7B58
:1022200021934FF04073CDE91F661D938DED067B22
:1022300005F048FE00288DD084F85C8089E70323F0
:1022400084F85C3085E700BF00000000000040001B
:102250000000000000000000B013002400500052F5
:102260002DE9F04F8FB0414B0024026800AF9A4235
:102270007C63C7E90944C7E90B4403D03C37BD463A
:10228000BDE8F08F3A4B40F609213A48EA46D3F8C8
:10229000D42007F11C0607F1220B4FF0020942F48B
:1022A00080424FF00308C3F8D420D3F8D42002F4BE
:1022B0008042BA60BA68D3F8E02042F04002C3F826
:1022C000E020D3F8E02002F04002FA60FA68D3F888
:1022D000E02042F02002C3F8E020D3F8E02002F032
:1022E00020023A613A69D3F8E02042F01002C3F8C4
:1022F000E020D3F8E02002F010027A617A69D3F886
:10230000E02042F00202C3F8E020D3F8E030F861A8
:1023100003F002033984BB61174B7B60BB697B68A8
:1023200053F8040F7B6001F08DFA7B68054618684E
:1023300001F090FA16F8013B786207F12401284673
:10234000C7F830807B63C7E90A9403F0DDF95E4586
:10235000E5D100225C20114602F056F95C2002F023
:102360008FF93C37D546BD46BDE8F08F005000528E
:10237000004402580A0A09090C140024114B02688F
:102380009A4200D07047104A70B5D2F8D4300F4C42
:1023900023F4804304F11806C2F8D43054F8040F33
:1023A00001F050FA0546206801F054FA014628462B
:1023B00003F0B8FBB442F1D15C20BDE8704002F0FC
:1023C0006DB900BF00500052004402580C140024A4
:1023D000014805F005BE00BFC0130024084B1A1DBC
:1023E000981D03F1080110B49C1C9A6603F10A02BF
:1023F000C3E91834C3E91B015DF8044B5A67704701
:10240000B01300242DE9F043821D05468BB0031D57
:1024100005F10A010830CDE9052305F10C02AB698D
:10242000CDE907010992002B3ED0EB69B3FA83F89E
:102430004FEA58180123022205AE0AAF4FF00609F1
:102440000393CDE9012313E02B680BB3012B02D1D9
:1024500022B30A230493204601F0FCF903462046E8
:10246000009301F0EFF9694603F04EF9BE4212D035
:1024700056F8044B2B7922789342E5D16979637839
:102480009942E1D1B8F1000FF0D02B68002BDDD1DB
:10249000CDF81090DFE70BB0BDE8F0836378022B36
:1024A0000CBF08230A23D5E74FF00108C2E700BF9D
:1024B000A04A0368934270B505468AB07FD02032A7
:1024C00093427CD09C4A934204D02032934201D064
:1024D0000AB070BD994C9A48D4F8E03043F001033B
:1024E000C4F8E030D4F8E03003F001030593059B15
:1024F000D4F8E03043F00803C4F8E030D4F8E0301A
:1025000003F008030693069BD4F8E03043F0400341
:10251000C4F8E030D4F8E03003F040030793079BA1
:10252000D4F8F03043F40003C4F8F030D4F8F030BD
:1025300003F400030893089BFFF764FFD4F8D82046
:10254000804B42F001022968D3F85C02C4F8D8201D
:10255000D4F8D82002F001020992774A099C9142EE
:1025600000F0AB80D3F88022013A18BF012292011B
:10257000002840F0CC807448582103F22C4403F525
:102580004775C3F82C0400232046C4E901124FF418
:1025900080524FF48061636262614FF48042C4E90B
:1025A00003314FF48073C4E906234FF400332362F0
:1025B00002F004FB002800F09580FFBEFEE75F4CB0
:1025C000604ED4F8E030304643F00103C4F8E03008
:1025D000D4F8E03003F001030093009BD4F8E0301E
:1025E00043F01003C4F8E030D4F8E03003F01003F7
:1025F0000193019BD4F8E03043F04003C4F8E0308D
:10260000D4F8E03003F040030293029BD4F8F0309A
:1026100043F48003C4F8F030D4F8F03003F48003BE
:102620000393039BFFF7EEFED4F8D830296843F0FC
:102630000103404A3068C4F8D8309142D4F8D83009
:1026400003F001030493049B27D0736A013B18BF76
:1026500001239B01002852D13B4A06F5E87458211A
:10266000C036C6F8102100222046C4E901134FF4F9
:1026700080534FF48061626263614FF48073C4E9F8
:1026800003214FF48042C4E906234FF40033236250
:1026900002F094FA08B3FFBEFEE7336A013B18BFAD
:1026A00001239B0118BB02F5284206F5AC745721A3
:1026B00028360C32C6F83021D5E7D3F87C22013A0F
:1026C00018BF0122920158BB2048572103F56D74B1
:1026D00003F52175C3F8B40355E7C6E92044A663A2
:1026E0000AB070BDC5E92044A5630AB070BD184AA0
:1026F00006F5AC7459212836C6F83021B3E7154ADF
:1027000006F5E8745A21C036C6F81021ABE7114827
:102710005A2103F22C4403F54775C3F82C0432E721
:102720000B48592103F56D7403F52175C3F8B40303
:1027300029E700BF04580140045C014000440258EE
:1027400084160024281400242800024010000240AF
:102750005800024070000240014802F0C1BD00BFB5
:1027600080150024014802F0BBBD00BFF81500240D
:10277000014802F0B5BD00BFDC170024014802F09B
:10278000AFBD00BF541800242DE9F04F0C684FF482
:102790001777794E87B004FB07F7012C06EB070883
:1027A000C0F8008000F39F804FF0000907F5127316
:1027B0000D468E4646F803903344C446C3F8049051
:1027C000C8F8509268A3D3E9002369A1D1E90001B8
:1027D000CDE9022306AB03EB8403CDE9040153F8F2
:1027E00010BC53F808ACBEE80F00ACE80F00BEE820
:1027F0000F00ACE80F009EE80300C8F828B0C8F846
:10280000C0A08CE803002B69042B0DD8DFE803F08F
:102810007F89930376004FF417734BF6803203FBE6
:1028200004639A64C3F8E020AA69296A002A56D092
:1028300000294FF0010214BF032102214FF4177346
:1028400003FB0463C3E90B12EA69696A002A4ED1EB
:10285000003918BF01214FF4177303FB0463C3E968
:1028600031126B69022B06D8444A12F80390444A8D
:1028700052F8233001934FF417730022414907F1B6
:10288000280004FB03F3304403F1380E03F1500C2D
:1028900003F1D00503F1E80441F80E2033448E44DF
:1028A000CEF804205A645A6341F80C208C44CCF8CA
:1028B0000420DA654A510D446A60C3F8DC20C3F88D
:1028C000CC200A510C4401996260C3F8F420022321
:1028D0004A4607F0B1FC002837D0FFBEFEE70039BA
:1028E00018BF0121AAE7012007B0BDE8F08F002939
:1028F0004FF0010214BF03210221ACE74FF417731C
:10290000214A03FB04639A64C3F8E0208CE74FF488
:1029100017734FF4FA5203FB04639A64C3F8E02080
:1029200082E74FF417734FF47A5203FB04639A64FF
:10293000C3F8E02078E74FF417734FF4FA4203FB33
:1029400004639A64C3F8E0206EE707F1C000022335
:102950004A460199304407F06FFC0028C4D0FFBEFE
:10296000FEE700BFAFF3008004580140045C014063
:1029700024580140245C014028140024C416010896
:10298000B81601082C140024007701000068704775
:1029900003681B69042B05D8044A02EB830393EDFB
:1029A000000A70479FED020A704700BFA416010895
:1029B00000803B47704700BF08B501F053F8BDE801
:1029C000084001F0E5BE00BF064808B503680BB13A
:1029D00003F0DEF9044803681BB1BDE8084004F0C9
:1029E0006BB908BD00430024F0380024064808B540
:1029F00003680BB103F0CCF9044803681BB1BDE8D0
:102A0000084004F059B908BD00430024F038002400
:102A1000064808B503680BB103F0BAF90448036827
:102A20001BB1BDE8084004F047B908BD00430024CD
:102A3000F0380024364BDA6A520062D59A6A9A6AF4
:102A40009A6A9B6A180600D500BE314B9B6A9906AC
:102A500000D500BE2E4B9B6ADA0600D500BE2C4B7B
:102A60009B6A1B0700D500BE294B9B6A980700D5BF
:102A700000BE274B9B6AD90700D500BE244B9B6A3A
:102A80001A0400D500BE224B9B6A9B0400D500BEF1
:102A90001F4B9B6AD80400D500BE1D4B9B6A1905CD
:102AA00000D500BE1A4B9B6A5A0500D500BE184BD4
:102AB0009B6A9B0500D500BE154B9B6AD80500D5C7
:102AC00000BE134B9B6A990100D500BE104B9B6A58
:102AD000DA0100D500BE0E4B9B6A1B0300D500BE79
:102AE0000B4B9B6A580300D500BE094B9B6A9903A8
:102AF00000D500BE064B9B6ADA0306D400BE00BEBA
:102B0000FEE7DB6A9B07FAD5F8E700BEF6E700BFF1
:102B100000ED00E000F0B8BF2DE9F041CEB0044672
:102B20004C2200210AA80DF0A7FB2022002102A8B8
:102B30000DF0A2FBBC2200211EA80DF09DFB02207F
:102B400004F024FE2368012B4FF0000350D0504ABC
:102B500002250193C820D16A4E4B21F00101D162B8
:102B6000D26A02F0010201929A6942F440429A61EB
:102B70009B6903F440430193019B464A936999047E
:102B8000FCD545490224002201268B6A4FF0040837
:102B9000082723F0030323438B62052316900AA81A
:102BA00018934FF48033109617941994CDF85480ED
:102BB0001A97CDE91B222122CDE91344CDE90A233E
:102BC00005F016FB00B1FEE7402329463F224FF4F3
:102BD00080650993049002A805970895CDE906330E
:102BE0000323CDE9022305F01DFE0346B8B1FEE73D
:102BF000284A04250093F0209169254B41F4404177
:102C00009161926902F440420092DA6A42F0010254
:102C1000DA62DB6A03F001030093009BADE74FF437
:102C200080324FF4805122941EA846922F94339400
:102C3000062435912197CDF8A8802C951F962396D0
:102C4000CDE92531CDE93032CDE92D3300224FF4E5
:102C50008071CDE93B334FF4401343911021CDE90E
:102C60003E2340F2271280232991249334930C238E
:102C7000CDE92742202220932B92084A1E9206F08B
:102C80001BF800B1FEE704F0A7FD4EB0BDE8F081EF
:102C90000004005800480258004402580F130F0364
:102CA0002DE9F0410D46044684B0D1E9000184E8E5
:102CB000030000F0A7FEAE79002E35D06C460BF075
:102CC0009DFBFEF77DFF0AF05DF80BF011F92B7903
:102CD000002B52D16B799BB1BFF34F8FBFF36F8F36
:102CE0003B4B0022C3F85022BFF34F8FBFF36F8FCF
:102CF0005A6942F400325A61BFF34F8FBFF36F8FAE
:102D000000234FF0FF322146324802928DF80C30FA
:102D1000CDE900330AF032FC2E480AF097FC09F0A6
:102D2000A5FC04B0BDE8F08120466C46FFF7F4FE38
:102D3000012701F0DBFC4FF040534FF48078204630
:102D40000193254BADF80070CDE9023801F0ECFCA1
:102D500019224FF0404320468DF80F70ADF80D80DA
:102D60008DF801708DF80A608DF80820019301F04C
:102D7000DBFC042001F0C8FCA1E715490023C1F8E1
:102D80008430BFF34F8FD1F8803043F6E07EC3F339
:102D9000C906C3F34E334FEA431C0CEA0E00334618
:102DA00040EA8372013BC1F860225A1CF8D1ACF1B1
:102DB000200C1CF1200FF0D1BFF34F8F4B6943F46F
:102DC00080334B61BFF34F8FBFF36F8F82E700BF3C
:102DD00000ED00E0E01800240E00010305F054BEF1
:102DE00005F06EBE1C4B9B6803F17842B2F5003FC4
:102DF00025D3B3F5803F20D303F16042B2F5003F05
:102E00001FD303F15C42B2F5002F1CD303F17042D3
:102E1000B2F5902F19D303F14842B2F5803F16D393
:102E200003F18042B2F1806F13D303F1E043B3F5B5
:102E3000000F34BF07200820704701207047002092
:102E40007047022070470320704704207047052018
:102E500070470620704700BF00ED00E003480023E4
:102E6000034A044903600CF0C9BF00BFE018002406
:102E700000000024B529000810B4204C0022204B8B
:102E800083B0D4F888001F4940F47000C4F888006B
:102E900018681D4C40F0010018601A611868014064
:102EA00019609A61DA611A629A62DA621A635A6385
:102EB0009A63DA631A645A64196821F480211960EC
:102EC0001A66D3F8DC2042F06042C3F8DC20D3F865
:102ED000DC300193019B23686FF30F03B3F1005FB4
:102EE00003D20A4B0122C3F80821044B4FF00062C1
:102EF0009A6003B05DF8044B704700BF00ED00E03E
:102F0000004402587FEDF6EA0010005C008000519A
:102F1000704700BF0020704770B50446074E0D464D
:102F20003046214608F0D0FE304608F0EFFE044B54
:102F3000204629461B689847002070BD7007002472
:102F4000E818002470B50446074E0D463046214669
:102F500008F0BAFE304608F0D9FE044B2046294658
:102F60001B689847002070BD0C0A0024E418002458
:102F700000220949094808B508F09CFE084907489D
:102F800008F0A2FE074B1A680AB1002008BD064AE5
:102F900000201A6008BD00BFEC2800247007002440
:102FA000EC300024E8180024112F00080022094901
:102FB000094808B508F07EFE0849074808F084FE75
:102FC000074B1A680AB1002008BD064A00201A60A3
:102FD00008BD00BFEC1800240C0A0024EC200024DB
:102FE000E4180024112F000820280CD0212801D03B
:102FF00000207047094B18689A889B790860002068
:103000008A808B717047054B0868B1F804C08A79D3
:1030100018600020A3F804C09A7170475C00002477
:1030200020280CD0212801D000207047094B1868B7
:103030009A889B79086000208A808B717047054BC5
:103040000868B1F804C08A7918600020A3F804C0A9
:103050009A717047540000240020704710B5094C45
:10306000D4F89032D3F814320BB1012010BD0A46C7
:103070000146204608F01EFE2046BDE8104008F03C
:103080002BBE00BF700700244B4A036830B5934243
:103090008BB04FF00004CDE90444CDE90644089418
:1030A00004D0464A934249D00BB030BD444D4FF452
:1030B000C0524448D5F8E03043F00103C5F8E03091
:1030C000D5F8E03003F0010300930223009904A92E
:1030D000CDE904230A23089302F016FB4FF4007293
:1030E000002304A937480694CDE9042302F00CFB21
:1030F000D5F8D8302246214643F000636220C5F857
:10310000D830D5F8D83003F000630193019B01F06B
:103110007BFA622001F0B4FA22462146632001F0D6
:1031200073FA632001F0ACFA22462146652001F0D3
:103130006BFA652001F0A4FA0BB030BD204D4FF4BE
:10314000404204A9D5F8E03043F00203C5F8E0306E
:10315000D5F8E03003F002030293022302981A48E4
:10316000CDE904230C23089302F0CEFAD5F8D83029
:10317000224621464A2043F00073C5F8D830D5F8DE
:10318000D83003F000730393039B01F03DFA4A200B
:1031900001F076FA224621464B2001F035FA4B2009
:1031A00001F06EFA224621464D2001F02DFA4D2005
:1031B00001F066FA0BB030BD00000840000004408A
:1031C00000440258000002580004025800F57171D2
:1031D000D0F8040408F006BEC1EBC10300EB830382
:1031E000D0F80404D3F8082208F02ABEC1EBC103CA
:1031F00000EB8303D0F804049A6C08F05BBE00BFB8
:10320000D0F8040408F0F6BEC16810B5044619B140
:10321000022900D0FEE70121D4F8040408F0D4FE0E
:10322000D4F80404BDE8104008F0A6BE10B504466A
:10323000D0F8040408F0CCFE2268D2F8003E43F037
:103240000103C2F8003E236A23B1034A136943F025
:103250000603136110BD00BF00ED00E0D0F80404C8
:1032600008F0C0BED0F8040408F0D4BED0F80404BE
:1032700008F0CEBED0F8040408F0CEBED0F80404A6
:1032800008F0CCBE70B5067804461EB1012E2CD0D5
:10329000002070BD2B4D02232B4AAB612A6009220E
:1032A000C5F804046A600122C0F8985228466E628C
:1032B0002E63C5E903360123C5E90766C5E90A237C
:1032C00003F048FC00B1FEE78021284604F03EFAF6
:1032D00031464022284604F0B7F9802201212846D1
:1032E00004F0B2F92678012ED2D1184D0023022223
:1032F00017492B6128466B63C5F80444C4F89852FB
:103300002960EA60AA61C5E90733C5E90936C5E95C
:103310000B3309236B6003F01DFC044600B1FEE78C
:103320004FF40071284604F011FA21468022284605
:1033300004F08AF94FF4BA723146284604F084F951
:10334000A6E700BFF83C002400000840F038002445
:103350000000044008B5D0F8980203F08BFC18B1C7
:1033600002280CBF0120022008BD00BF9446D0F8FF
:1033700098021A4608B5634604F016F818B10228F8
:103380000CBF0120022008BD08B5D0F8980204F057
:1033900049F818B102280CBF0120022008BD00BF67
:1033A00008B5D0F8980204F0CFF818B102280CBF85
:1033B0000120022008BD00BF08B5D0F8980204F033
:1033C00007F918B102280CBF0120022008BD00BF78
:1033D0000A06D0F8983206D4C1EBC10103EB810391
:1033E00093F8FE01704701F07F01C1EBC10103EBCF
:1033F000810393F83E00704708B5D0F8980203F0B7
:10340000BDFF18B102280CBF0120022008BD00BF7B
:1034100008B5D0F8980204F06FF818B102280CBF74
:103420000120022008BD00BF08B5D0F8980204F0C2
:1034300031F818B102280CBF0120022008BD00BFDE
:10344000D0F8980204F04EB8122301480B80704760
:10345000A4000024122301480B807047D4000024EC
:10346000042301480B807047A000002410B5044CD1
:103470000A460448214609F043F8204610BD00BF23
:10348000004100249415010810B5044C0A46044874
:10349000214609F035F8204610BD00BF0041002448
:1034A000A415010810B5044C0A460448214609F049
:1034B00027F8204610BD00BF00410024B8150108C0
:1034C00010B5044C0A460448214609F019F8204674
:1034D00010BD00BF00410024C415010810B5044C04
:1034E0000A460448214609F00BF8204610BD00BFEB
:1034F00000410024D4150108042301480B807047C3
:10350000A000002410B5044C0A460448214608F0E7
:10351000F7FF204610BD00BF0041002494150108AC
:10352000524A4FF01A0CD2F80038D2F80808A1F825
:1035300000C01B1801D14E487047D2F80418180F6C
:103540004B4AB3F1204F4FF0000C2CBF37303030D6
:1035500082F803C0C3F3036C9070BCF1090F60469E
:103560004FF0000C8CBF3730303082F805C0C3F309
:10357000035C1071BCF1090F60464FF0000C8CBF6A
:103580003730303082F807C0C3F3034C9071BCF180
:10359000090F60464FF0000C8CBF3730303082F896
:1035A00009C0C3F3033C1072BCF1090F60464FF031
:1035B000000C8CBF3730303082F80BC0C3F3032CC3
:1035C0009072BCF1090F60464FF0000C8CBF373091
:1035D000303082F80DC0C3F3031C1073BCF1090F27
:1035E00060464FF0000C8CBF3730303082F80FC08F
:1035F0004FF0000C907303F00F0082F813C04FF0EF
:10360000000C034609284FF0000082F815C094BF53
:1036100030333733B1F1204F507413744FEA1173C4
:10362000C1F303604FF0000C2CBF3733303309284F
:1036300082F817C093740346C1F303508CBF37332D
:103640003033092813750346C1F303404FF00001DE
:103650008CBF3733303309285176937503460448BD
:1036600094BF303337331376704700BF00E0F11F4B
:1036700084000024524A4FF01A0CD2F80038D2F8D5
:103680000808A1F800C01B1801D14E487047D2F8B5
:103690000418180F4B4AB3F1204F4FF0000C2CBF09
:1036A0003730303082F803C0C3F3036C9070BCF144
:1036B000090F60464FF0000C8CBF3730303082F875
:1036C00005C0C3F3035C1071BCF1090F60464FF0F5
:1036D000000C8CBF3730303082F807C0C3F3034C86
:1036E0009071BCF1090F60464FF0000C8CBF373071
:1036F000303082F809C0C3F3033C1072BCF1090FEB
:1037000060464FF0000C8CBF3730303082F80BC071
:10371000C3F3032C9072BCF1090F60464FF0000C0C
:103720008CBF3730303082F80DC0C3F3031C1073E8
:10373000BCF1090F60464FF0000C8CBF37303030C1
:1037400082F80FC04FF0000C907303F00F0082F866
:1037500013C04FF0000C034609284FF0000082F818
:1037600015C094BF30333733B1F1204F5074137408
:103770004FEA1173C1F303604FF0000C2CBF3733D5
:103780003033092882F817C093740346C1F30350FD
:103790008CBF37333033092813750346C1F3034018
:1037A0004FF000018CBF37333033092851769375C1
:1037B0000346044894BF303337331376704700BF55
:1037C00000E0F11F8400002410B5044C0A460448B0
:1037D000214608F095FE204610BD00BF00410024A0
:1037E000C415010810B5044C0A460448214608F0E7
:1037F00087FE204610BD00BF00410024B815010817
:10380000D0F8C00208F0ECBED0F8C00208F000BF4B
:10381000D0F8C00208F008BF704700BFD0F8C0025F
:1038200008F0EEBED0F8C00208F0EEBE08B5D0F841
:10383000D00302F05FFE18B102280CBF0120022065
:1038400008BD00BF024B027853F82200704700BF4A
:10385000F8160108024B427833F81200704700BF97
:10386000D81601088CB00A2814D8DFE800F02331FC
:103870003F4D5B697785930615004D4BD3F8E020EB
:1038800042F40072C3F8E020D3F8E03003F4007390
:103890000A930A9B0CB07047454BD3F8E02042F4E2
:1038A0008062C3F8E020D3F8E03003F480630B9328
:1038B0000B9BEFE73E4BD3F8E02042F00102C3F848
:1038C000E020D3F8E03003F001030193019BE1E72E
:1038D000374BD3F8E02042F00202C3F8E020D3F8DF
:1038E000E03003F002030293029BD3E7304BD3F89E
:1038F000E02042F00402C3F8E020D3F8E03003F007
:1039000004030393039BC5E7294BD3F8E02042F05F
:103910000802C3F8E020D3F8E03003F00803049372
:10392000049BB7E7224BD3F8E02042F01002C3F823
:10393000E020D3F8E03003F010030593059BA9E7DE
:103940001B4BD3F8E02042F02002C3F8E020D3F86C
:10395000E03003F020030693069B9BE7144BD3F85B
:10396000E02042F04002C3F8E020D3F8E03003F05A
:1039700040030793079B8DE70D4BD3F8E02042F0FF
:103980008002C3F8E020D3F8E03003F0800308930E
:10399000089B7FE7064BD3F8E02042F48072C3F81F
:1039A000E020D3F8E03003F480730993099B71E7BA
:1039B00000440258704700BF0F4B1B780BB9012021
:1039C000704710B504464FF47A700C4AB0FBF3F31D
:1039D0001068B0FBF3F000F073FE0F2C00D808B1B4
:1039E000012010BD002221464FF0FF3000F00CFEF8
:1039F000034B00201C6010BD040100245000002473
:103A00000801002438B50320124D00F0EBFD124CE4
:103A100004F07AFE114A12499369C3F30323CB5C85
:103A200003F01F0320FA03F30E202B60926902F0CB
:103A30000F028A5C02F01F02D3402360FFF7BCFF35
:103A400010B10124204638BD0446FFF7B3FF2046DD
:103A500038BD00BF500000244C0000240044025830
:103A6000C8160108034A044B11681B780B44136005
:103A7000704700BFC445002404010024014B1868AE
:103A8000704700BFC445002438B50446FFF7F6FF71
:103A90000546631C02D0044B1B781C44FFF7EEFF65
:103AA000401BA042FAD338BD04010024014B186822
:103AB000000C70470010005C704700BF806B08B5B9
:103AC000FFF7FAFF08BD00BF836B5A6D12F0500F6D
:103AD0005A6D10B51DD1196842F400725A650A6812
:103AE00012F0080FCA681BD012F4406F0DD1CA68DB
:103AF00094040AD45A6D22F480725A655A6DD10426
:103B000003D45A6D42F001025A651846FDF746FC8F
:103B100010BDD2060AD4DB6CBDE81040DB6C184740
:103B20009007E7D01846FDF739FCF1E71846FDF796
:103B3000C3FC10BD806B08B5436D43F04003436583
:103B4000836D43F004038365FDF7B6FC08BD00BF39
:103B5000F0B5002283B0019290F85020012A00F0C5
:103B6000F580034601201A6883F8500094686407C2
:103B700054D40C68C4F31305C4F3846E002D40F0D4
:103B80009E8000FA0EF0D5694C6828431F254FEA45
:103B9000941CD06104F01F000CF00C0402F1300CF6
:103BA0000EFA00FE85405CF8040020EA050040EAB9
:103BB0000E004CF80400906810F0040F906801D1DA
:103BC000070735D59068C60714D4CE68086806F094
:103BD0001807B64CD2F8C050FC40C0F3130704409D
:103BE00025EA07052C43C2F8C040B14CA64271D06B
:103BF000002801DB002016E0AE498A4204D001F51E
:103C000080718A4240F0C180AB48AA49AB4A8068C3
:103C100089689268D20701D4CF07EBD55A6D01208D
:103C200042F020025A65002283F8502003B0F0BD14
:103C30000C6802F1140C4FF0070E8E68E50DC4F30A
:103C4000045405F004050EFA04FE06FA04F45CF8C8
:103C5000050020EA0E0020434CF8050098484D6905
:103C6000006800F07040B0F1805FD0682DD010F097
:103C7000100FD06829D0400800F0080085400E6978
:103C80000868042E65D002F1600C00F0F8445CF87E
:103C9000260000F00040204328434CF826004C7ECC
:103CA0000D69A4F101045CF82500B4FA84F420F055
:103CB0000040640940EAC4704CF8250082E794FA99
:103CC000A4F4B4FA84F4A0405DE7C0F3820040009D
:103CD0008540D4E7002F79D090FAA0F4B4FA84F4A8
:103CE000013404F01F04092C00F2938090FAA0F430
:103CF000B4FA84F490FAA0F5B5FA85F501340126FA
:103D00000135A40605F01F0504F0F84406FA05F590
:103D10002C4390FAA0F0B0FA80F0304400F01F007D
:103D200000EB40000005044302F114060727E50DEF
:103D3000C4F3045405F00405A740705920EA0700B5
:103D40008F68A74038437051086851E7022003B0DC
:103D5000F0BD156E840605F0F845B5EB806F4ED0CA
:103D6000506E00F0F840844244D0906E00F0F8406D
:103D7000844249D0D06E00F0F84084427FF422AFF4
:103D8000D06E20F00040D0661CE74E4C4E49A6682D
:103D90008D68ED073FF542AF4C4D06F0E077A84245
:103DA00062D04B4DA84251D04A4DA8427FF422AF79
:103DB00070023FF51FAF8A427FF41CAFA26822F069
:103DC000E0723A4342F48002A26013E7800E0124BD
:103DD000013000F01F058006AC4000F0F840092DCE
:103DE00044EA000405EB45009CD91E38000540F06C
:103DF000007098E7506E20F000405066B5E7106EF6
:103E000020F000401066ABE7906E20F00040906616
:103E1000B0E790FAA0F4B4FA84F490FAA0F5B5FAF9
:103E200085F5013401260135A40605F01F0504F0CF
:103E3000F84406FA05F52C4390FAA0F0B0FA80F0A9
:103E4000304400F01F0000EB4000CEE7F5013FF5E5
:103E5000D1AE8A427FF4CEAEA26822F0E0723A433D
:103E600042F08072A260C5E636023FF5C3AE8A42D8
:103E70007FF4C0AEA268184922F0E0723A4342F4DF
:103E80000002A2600A6815499209A1FB0212920978
:103E900052000192019A002A3FF4ACAE019A013A15
:103EA0000192019A002AF9D1A4E600BFFFFF0F009A
:103EB0000000FF4700200240002302400021024092
:103EC0000010005C0063025800600258000084CBC0
:103ED000000052C70000B8CF50000024632D3E05FB
:103EE00003689A68D20701D5002070479968234A71
:103EF000114270B5044609D0636D012043F01003F0
:103F00006365A36D43F00103A36570BD99681C4A06
:103F10000A4042F001029A60FFF7B0FD2368194A97
:103F20000546934221D002F5807293421DD002F1E2
:103F3000C05202F584429268114E0AE09A683240FB
:103F400042F001029A60FFF799FD401B0228D3D886
:103F500023681A68D2070FD49A68D107EED5FFF705
:103F60008DFD401B0228F3D9C6E7074A9268D006A8
:103F7000E2D0064A9342DFD1002070BD3F000080AE
:103F8000C0FFFF7F002002400023024000210240CA
:103F90002DE9F041374B044600680E46174698421B
:103FA0001CD003F58073984218D0334B9B6885680A
:103FB00015F0040518D194F85020012A14D003F00C
:103FC0001F0840F22123012023FA08F384F850004F
:103FD00003400CD184F85030BDE8F081274B9B683A
:103FE000856815F00405E6D00220BDE8F081204682
:103FF000FFF776FF002838D1626D214B216813400E
:1040000043F480736365B8F1000F02D01D4B9942F1
:1040100003D0636D23F480136365636D13F48053E1
:1040200026D0A36D23F00603A365E06C3B46164D36
:1040300032464031C563154D0564154DC5641C25D8
:1040400041F8405C002584F8505051F83C5C45F044
:10405000100541F83C5C00F065FF22680D4B91684B
:104060000B4043F004039360BFE784F85050BCE773
:10407000A365DAE7002002400063025800230240F3
:10408000FEF0FFFF00210240C93A0008BD3A0008D7
:10409000353B0008C0FFFF7F38B503689A68910779
:1040A00002D59B68002038BD9A68D207FAD59A6875
:1040B000044602F00D02012A09D0636D012043F08D
:1040C00010036365A36D43F00103A36538BD9868D1
:1040D0000321094A024042F002029A601960FFF788
:1040E000CDFC054623689B68DB07DBD5FFF7C6FCE4
:1040F000401B0228F6D9E0E7C0FFFF7F38B5554ADC
:1041000004460368934224D002F58072934220D083
:10411000514B9B6813F4403F20D004F09FFC636830
:104120000546B3F5003F75D0B3F5403F7AD0B3F5FF
:10413000803F6FD0FFF7BAFC41F2030398422CD8BE
:10414000464A2368954248D99A6842F480729A6038
:1041500038BD434B9B6813F4403FDED14FF4002041
:1041600005F0ECFD63680546B3F5101F58D027D85D
:10417000B3F5E01F52D057D8B3F5801F08D061D8EF
:10418000B3F5002F04D023F40022B2F5802FD1D153
:104190009B0C5B00B5FBF3F5CCE7324A23689542F4
:1041A00026D9314A31492A448A422CD9304A3149E8
:1041B0002A448A423FD99A6842F440729A6038BDD4
:1041C000B3F5201F35D0B3F5301FB3D1FFF76EFC28
:1041D00041F20303984205D823689A6822F480725A
:1041E0009A6038BD1F4B2A0AB3EB152F05D32368FD
:1041F0009A6822F440729A6038BD1B4B1B491344E5
:104200008B42236817D89A6822F4407242F4807275
:104210009A6038BD1B0CB5FBF3F58BE7050989E700
:10422000850987E7850885E7B3F5001F82D1450931
:1042300080E7C5097EE79A6822F4407242F4007272
:104240009A6038BDB3F5A01FA2D0B3F5C01F9FD0B0
:1042500070E700BF0020024000630258002D3101CA
:1042600000230240105E5F00EFA1A0FF0F5E5F0021
:10427000DF4341FF1FBCBE0030B5002383B0019374
:10428000002800F0A880456D0446002D00F0A980AC
:1042900022689368990003D59168704B0B40936036
:1042A0009368DB0015D46E4B90686E491B68014023
:1042B0006D489B0941F08051A0FB030391609B096D
:1042C0000193019B2BB1019B013B0193019B002BAF
:1042D000F9D19368DD0000F18280636D012543F020
:1042E00010036365A36D2B43A365936813F0040F5C
:1042F000636D6CD1D8066AD4636D23F4817343F087
:10430000020363659368D9070CD4584B9A4200F0B6
:10431000818003F580739A427CD0554B9B68D90706
:1043200040F18980FFF7C2FB41F20303A168984284
:10433000237F5CD894F815C01A04206B42EA4C32F3
:1043400002430A43012B03D1236A013B42EA434261
:10435000636A23B103F47873A16A0B431A43236899
:104360004449D86801401143D9609A6812F0040F9B
:104370009A681CD112071AD4D8683F4A217D02409E
:1043800042EA8132E16A0A43DA6094F83820012A6D
:1043900053D01A6922F001021A611A692046616B32
:1043A00022F070420A431A61FFF7A8FE2368E26810
:1043B000012A27D01A6B22F00F021A63636D284678
:1043C00023F0030343F00103636503B030BD636D65
:1043D00043F0100363650125284603B030BD002576
:1043E00083E7FCF78BFFA56584F8505050E7102950
:1043F000A0D1617D1A0442EA4132216B0A4342F0A6
:104400001C029FE7196BA26921F00F01013A0A43D0
:104410001A63D3E7154A194B92689B68DB0781D46E
:10442000D0073FF57FAF164A9368616823F47C1389
:104430000B43936076E7134AF6E7D4E91021186935
:104440000A43114901400A43A16C0A43E16B42EA65
:10445000014242F001021A619FE700BFC0FFFF5F07
:1044600050000024C0FFFF6F632D3E050020024076
:104470000060025803C0F0FFFCBFFFFF00210240B4
:1044800000230240006302581EF800FCF0B5002330
:1044900083B0019390F85030012B40D001230446A3
:1044A0000E46154680F85030FFF7F6FDE8B9676D07
:1044B00005F080421B4B06F4803125683B4043F0F9
:1044C00002036365184BAE68334013430B4343F05C
:1044D0000043AB60AB68154A002B0FDB636D23F024
:1044E000030343F00103636503E0636D43F01003CE
:1044F0006365002384F8503003B0F0BD019B0133A5
:104500000193019B9342E5D9636D0022012023F0C2
:10451000120384F8502043F010036365ECE7022097
:1045200003B0F0BDFDEEFFFFC0FFFE3FFF955A5503
:1045300090F85020012A36D003460120F0B41A68C2
:10454000244C83F85000A24208D05A6D002142F05A
:10455000200283F850105A65F0BC70471E488468EA
:1045600064070AD592685A6D012042F020025A650C
:10457000002283F85020F0BC704794686607F2D49C
:104580000C6894B915498C6824F440448C60946894
:104590008268D50705D4E20703D48868104A024030
:1045A0008A600020E4E7022070470C4E4F68B5682F
:1045B00025F440453D43B56095688268D707F0D43F
:1045C000E807EED48A68B0681443054A02401443F1
:1045D000B460E6E7002002400021024000230240D0
:1045E000E0F0FFFF06494FF6FF0C0002054BCA68DA
:1045F00000F4E06002EA0C0210430343CB60704712
:1046000000ED00E00000FA051A4BDB68C3F302235B
:1046100000B5C3F1070E03F1040CBEF1040F28BF6F
:104620004FF0040EBCF1060F1AD9A3F1030C4FF0A2
:10463000FF3303FA0CF322EA03024FF0FF330028A2
:1046400003FA0EF321EA030303FA0CF343EA02032D
:104650004FEA0313DBB206DB074A13545DF804FB91
:1046600000229446E9E700F00F00044A13545DF875
:1046700004FB00BF00ED00E000E400E014ED00E00A
:10468000002807DB00F01F0101234009024A8B408C
:1046900042F82030704700BF00E100E000280CDB4A
:1046A0004309012200F01F0004492033824041F8F1
:1046B0002320BFF34F8FBFF36F8F704700E100E0FF
:1046C000431EB3F1807F01D3012070474FF0E022F9
:1046D000002005494FF0F00C5361072381F823C0F7
:1046E00090611361704700BF00ED00E0BFF35F8F82
:1046F000044B00215A6A22F480325A62C3F89410A3
:10470000704700BF00ED00E0064B40F00100C3F829
:1047100094005A6A42F480325A62BFF34F8FBFF35B
:104720006F8F704700ED00E0174A4378C2F8983069
:10473000017821B3436800B5C2F89C30C37A90F881
:104740000CC01B0690F80FE043EA0C7390F80AC007
:104750000B43817B43EACC4390F80DC043EA8C4382
:1047600090F809C043EA4143017A43EA0E4343EA21
:104770000C2343EA4103C2F8A0305DF804FBC2F801
:104780009C10C2F8A010704700ED00E0704700BF19
:1047900008B5FFF7FBFF08BD88B110B503790446E3
:1047A00003F0FF023BB100230221012221711846D0
:1047B0002361227110BD4271FCF780FEF3E70120F6
:1047C000704700BF4279012A28D0034602220068C0
:1047D00001F0100C10B41A710122046802FA0CF2F4
:1047E00022430260026879B902F03E02022A03D134
:1047F000426842F001024260002201215A711046D3
:1048000019715DF8044B704702F47812B2F5003F5D
:10481000F2D1426842F002024260EDE702207047A6
:1048200010B4006883B000240194019051B901993B
:1048300008310A440192019A0020136003B05DF828
:10484000044B7047019914310A440192F3E700BF09
:10485000704700BF03681A68910410B5044602D57A
:104860005A6B920418D41A68910002D55A6B9200C0
:1048700000D410BD04224FF000512046227122695D
:1048800042F00202226159631A6822F08052BDE8A8
:1048900010401A6000F0A6B804224FF400510271D3
:1048A000026942F00102026159631A6822F48052DF
:1048B0001A60FFF7CDFF2368D5E700BF4379012BCE
:1048C00000F08C8002232DE9F041154601220E46AE
:1048D0000371427104460968042939D005F01002B9
:1048E00003683069012829D0D6E902052843DD6B29
:1048F00008437168072690409140964025EA0605D6
:10490000012628434FF48045D8639540186820EA73
:10491000050040F6FE7518609540186820EA05000D
:1049200000250843C021186091401A68284622EAF1
:1049300001021A6026716571BDE8F0811F209D6B30
:10494000904025EA00057069904028439863CBE7C2
:10495000D5B9FFF793F8DFF88880074604E0FFF742
:104960008DF8C01B012830D823685B6B13EA080F51
:10497000F5D10120FFF788F82368B2691A640DE0C9
:10498000FFF77CF8012820D823685B6B002BF7DB4E
:104990000120FFF779F82368B2695A6405F0100224
:1049A00040F2FF30996C904021EA0001F06990409C
:1049B0000143FF2099649040D96C21EA0001306ADC
:1049C00090400143D96431688BE7236903220320B7
:1049D00043F0080323612271BDE8F0810220704793
:1049E00000800020704700BF3649024603688B42B2
:1049F00033D01831591AB1FA81F1490969BB3248EB
:104A000083423ED0183083423ED01830834234D0A7
:104A1000183083423BD0183083423ED01830834256
:104A20002AD000F55670834235D028498B4231D0C8
:104A300018318B4234D018318B4234D018318B422C
:104A400034D018318B4234D018318B4234D01831E5
:104A50008B4234D023F0FF0011E0DBB21C491D482B
:104A6000103BA1FB031310B41B091B4CE15C5DF868
:104A7000044BC2E91601704716211848D1659065AC
:104A8000704710211348F9E716211248F6E706216E
:104A90001248F3E706211248F0E710210F48EDE72E
:104AA00010210F48EAE716210D48E7E700210D48DD
:104AB000E4E706210B48E1E710210A48DEE716216A
:104AC0000848DBE710000240400002402804024092
:104AD000ABAAAAAA0000024028170108040002405D
:104AE00000040240040402400268284B284930B404
:104AF000284D294CAA4218BF9A420CBF012300231B
:104B00008A4208BF43F001032831A24208BF43F0A4
:104B1000010328348A4208BF43F001032831A2422E
:104B200008BF43F001038A4208BF43F00103D1B23A
:104B300013B91A4B9A4211D1A1F10803184C194A22
:104B40000121A4FB0343184C1D0902EB1313A940D8
:104B50009B008166C0E9183430BC7047A1F1100396
:104B60001249134C1144A4FB0343A8294FEA131321
:104B700008D903F01F040F4A01211A44A1400E4C2A
:104B80009300E6E708331C46F5E700BF08540258D7
:104B9000305402581C540258445402589454025839
:104BA000CDCCCCCC0096001680580258F0FBFDBF4F
:104BB000ABAAAAAA008200108008024070B5054680
:104BC000FEF75CFF002D00F0A9802B680446904A98
:104BD00090498B4218BF934201F118010CBF01228A
:104BE00000228B4208BF42F0010218318B4208BFFD
:104BF00042F0010218318B4208BF42F00102183125
:104C00008B4208BF42F0010218318B4208BF42F0CC
:104C1000010218318B4208BF42F0010201F55671C2
:104C20008B4208BF42F0010218318B4208BF42F0AC
:104C3000010218318B4208BF42F0010218318B4249
:104C400008BF42F0010218318B4208BF42F0010256
:104C500018318B4208BF42F0010218318B4208BF65
:104C600042F001021AB96C4A934240F0E3800222FA
:104C7000002185F8352085F834101A6822F00102E9
:104C80001A6005E0FEF7FAFE031B052B41D82B68DE
:104C90001A68D107F6D4D5E9022429692243A86904
:104CA0001C680A4369690A43E96902430A435B498C
:104CB00021402C6A22430A43696A042930D01A60D1
:104CC0005A6922F00702114359612846FFF78CFE0A
:104CD000EA6D3F2302F01F02934083602846FFF7EE
:104CE00003FFAB68802B6ED06B68A86ED9B2013B16
:104CF000D5E91842072B216050602ED90023C5E961
:104D00001B336B67002301226B65184685F835203D
:104D100070BD202203236A6585F83530012070BDFF
:104D2000D5E90B4121431143AA6A1960596921F061
:104D30000701114341F00401002CC5D000284AD1DD
:104D4000012A5FD032F00202BED1E201BCD540227E
:104D500001236A6585F83530E0E72A68481E304B44
:104D6000304CA24218BF9A4204F114040CBF012334
:104D70000023A24208BF43F001031434A24208BF3B
:104D800043F001031434A24208BF43F0010314347A
:104D9000A24208BF43F001031434A24208BF43F00B
:104DA00001031BB9204B9A4240F09E801F4A204CC1
:104DB0000A449200012300218340C5E91B246B674C
:104DC000116063609EE70023A96ED5E918026B604D
:104DD0000360516092E7B0F5005F04D0022AB6D9B3
:104DE000032AB2D070E7032A3FF66EAF01A050F855
:104DF00022F000BF4F4D00084B4D00084F4D0008FA
:104E0000054E0008B4F1C07F7FF45EAF9FE700BF9E
:104E10001000024028000240B80402403F8010FE0B
:104E2000085402581C540258945402583F960016D5
:104E300040590258334A34483449834218BF934298
:104E400000F128000CBF012200228B4208BF42F073
:104E500001022831834208BF42F0010228308B4210
:104E600008BF42F001022831834208BF42F001022C
:104E70008B4208BF42F0010212B9254A93423AD14F
:104E800000200221AA6885F8340085F83510402AF0
:104E90001C686FF310142CD0A2F18002B2FA82F2D7
:104EA00052099103EE69D5E9032010436A69104362
:104EB000AA691043174A30432E6A1A4444EA16146A
:104EC00044EAD00001431448A0FB020228461960BE
:104ED00013099B00EB65FFF787FDE96D012201F0E7
:104EE0001F018A404260F9E60C4A0D4C0A449200C8
:104EF00060E71021D6E7402203236A6585F8353044
:104F00000CE700BF085402581C5402583054025891
:104F100094540258F8ABFDA7CDCCCCCC3F82001006
:104F200040090240002800F0D3802DE9F04F90F8AE
:104F3000344083B0012C00F0C780012480F8344055
:104F400090F83540012C09D000224FF4006380F81E
:104F500034204365012003B0BDE8F08F02248C4D5E
:104F60008C4E80F8354000248B4F44650468DFF890
:104F70003492B44218BFAC4206F11806D0F858E09B
:104F80000CBF01250025B44208BF45F0010506F518
:104F90005676B44208BF45F001051836B44208BF42
:104FA00045F001051836B44208BF45F00105183632
:104FB000B44208BF45F001051836B44208BF45F0B9
:104FC00001051836B44208BF45F00105A6F586660E
:104FD000BC4218BFB44206F58966C76E0CBF4FF0DD
:104FE00001084FF00008B44208BF45F00105A6F5DE
:104FF0008666B44208BF48F0010806F58966B442E7
:1050000008BF45F00105A6F59266B44218BF4C45AD
:1050100045EA080C01950CBF01250025D0E919AB24
:10502000009502D0BCF1000F54D0D4F8009029F0C4
:105030000109C4F80090CAF804B03FB1D0E91C5689
:105040006E60009D15B9BCF1000F4DD0C56D4FF0DD
:105050003F0905F01F0A09FA0AF9CEF80890D4F8BA
:1050600000E02EF4802EC4F800E063608368402BDB
:1050700027D0A160E260009B13B9B8F1000F7ED089
:10508000236823F01E0343F016032360036C1BB157
:10509000236843F008032360036E1A68D20303D524
:1050A0001A6842F480721A601FB13B6843F480733F
:1050B0003B602368002043F00103236003B0BDE898
:1050C000F08FA260E160D6E7022003B0BDE8F08F68
:1050D00001207047256825F001052560CAF804B055
:1050E00017B1D0E91C566E602C4DDFF8BC804445EA
:1050F00018BFAC4208F114080CBF01250025444537
:1051000008BF45F0010508F11408444508BF45F003
:10511000010508F11408444508BF45F0010508F1F0
:105120001408444508BF45F0010508F1140844453A
:1051300008BF45F0010515B9194DAC420DD1C56D3B
:1051400005F01F08012505FA08F5CEF80450636044
:105150008368402B18D0A160E2602268016C22F0C5
:105160000E02036E42F00A022260002995D02268E6
:1051700042F0040222601A68D10391D494E7019BA3
:10518000002B7FF47DAFE8E7A260E160E5E700BFB8
:1051900088000240A000024040000240085402582B
:1051A00094540258100002401C540258002862D047
:1051B00038B590F83530022B59D10268444B454C34
:1051C0004549A24218BF9A4204F130040CBF0123A2
:1051D00000238A4208BF43F001033031A24208BFD6
:1051E00043F0010330348A4208BF43F001033031F9
:1051F000A24208BF43F0010330348A4208BF43F0A3
:10520000010301F55C71A24208BF43F0010304F5FC
:105210005C748A4208BF43F001033031A24208BFE8
:1052200043F0010330348A4208BF43F001033031B8
:10523000A24208BF43F0010330348A4208BF43F062
:1052400001033031A24208BF43F001038A4208BF84
:1052500043F0010313B9214B9A420ED1042380F885
:105260003530136823F001031360002038BD80231C
:105270004365012038BD012070471368046E23F098
:105280000E03C16D856D136001F01F01136823F0DB
:1052900001031360012322688B4022F48072226094
:1052A0006B60C36ED0E91921516033B11A68D0E93F
:1052B0001C1422F480721A604C6000210122036DDC
:1052C00080F8341080F83520002BCED09847CCE7FA
:1052D000100002402800024040000240B804024092
:1052E000F0B50022944B83B0856D07461E6801928D
:1052F000924B026892482C68824218BF9A4200F191
:10530000180029680CBF01230023824208BF43F024
:1053100001031830824208BF43F001031830824273
:1053200008BF43F001031830824208BF43F0010375
:105330001830824208BF43F001031830824208BF90
:1053400043F0010300F55670824208BF43F00103A9
:105350001830824208BF43F001031830824208BF70
:1053600043F001031830824208BF43F001031830B4
:10537000824208BF43F001031830824208BF43F065
:1053800001031830824208BF43F001031BB96D4B83
:105390009A4240F02F81FB6D082103F01F039940D2
:1053A00021420BD01068400708D5106820F0040097
:1053B0001060A960796D41F00101796524FA03F16B
:1053C000C80709D55169090606D501219940A96088
:1053D000796D41F00201796504219940214207D09D
:1053E0001068800704D5A960796D41F004017965E2
:1053F00010219940214200F0B0801068000740F170
:10540000AC80A960116811F4802F116840F09E8073
:10541000C90503D4116821F008011160396C002915
:1054200000F09B8038468847FB6D202103F01F0366
:105430009940214253D03A684048414CA24218BF9B
:10544000824204F118040CBF01200020A24208BFD0
:1054500040F001001834A24208BF40F001001834A7
:10546000A24208BF40F001001834A24208BF40F039
:1054700001001834A24208BF40F001001834A242D3
:1054800008BF40F0010004F55674A24208BF40F086
:1054900001001834A24208BF40F001001834A242B3
:1054A00008BF40F001001834A24208BF40F00100DC
:1054B0001834A24208BF40F001001834A24208BFCD
:1054C00040F001001834A24208BF40F0010000285B
:1054D00047D11C48824244D01068800744D47B6D79
:1054E000002B70D07B6DDC071ED53A68042187F84D
:1054F000351015491368A1FB066123F00103890AE1
:10550000136002E01368D80704D5019B01338B4276
:105510000193F7D9002387F834301368DB074CBFB9
:105520000323012387F83530FB6C002B4BD0384622
:1055300003B0BDE8F04018475000002410000240BE
:1055400028000240B8040240B5814E1B08037FF5D5
:1055500065AFB96C00297FF465AF202199400C42FA
:10556000BDD01068C406BAD5A96097F835100429D3
:105570000ED0136813F4802F136826D01D0331D585
:10558000FB6B002BABD0384698477B6DDBB1A9E7AE
:10559000116821F016011160516921F080015161FB
:1055A000396C19B3116821F0080111603F22002104
:1055B00002FA03F30122AB603B6D87F8341087F8E1
:1055C0003520002BB3D103B0F0BD13F48073D7D1D5
:1055D000116821F010011160012287F8343087F83A
:1055E0003520CDE77B6C002BCDD178E7B96C002955
:1055F000D8D1DBE7404B4148824218BF9A4200F1C4
:1056000014000CBF01230023824208BF43F00103B2
:105610001430824208BF43F001031430824208BFB5
:1056200043F001031430824208BF43F001031430F9
:10563000824208BF43F0010313B9314B9A42C2D1F1
:10564000F86D0424136800F01F0084400C420BD056
:105650005E0709D519046C6032D5DA0336D4BB6C09
:10566000002B7FF464AFAEE7022484400C420BD0E1
:105670009E0709D519046C602DD5DA0337D47B6CED
:10568000002B7FF454AF9EE7082484400C429AD04C
:105690001B0798D51368002123F00E031360012324
:1056A000FA6C03FA00F068607B6587F8341087F8BD
:1056B0003530002A87D0384603B0BDE8F0401047A7
:1056C0009B0603D4136823F0040313603B6C002B88
:1056D0007FF42DAF77E713F0200308D11168012084
:1056E00021F00A01116087F8343087F83500FB6B30
:1056F000002B7FF41CAF66E7085402581C54025874
:1057000094540258406D70470B68002B00F0ED81F7
:10571000824A90424FF000022DE9F04F85B000F030
:10572000F8804FF001084FF0B04E42E04FEAD20C43
:1057300002F007050F694FF00F0A00EB8C0CAD006B
:10574000DCF82090AF400AFA05F529EA05054FF08C
:1057500003092F4304F00305CCF820705700D0F85C
:1057600000C009FA07F9BD402CEA090C6FEA090BE1
:1057700045EA0C0505608D6805FA07FCD0F808902D
:105780002409CD6809EA0B09944005FA07F747EAAE
:1057900009078760476827EA060634434460C468FF
:1057A00004EA0B0444EA0C04C460013233FA02F444
:1057B00079D008FA02F616EA0309F6D04C6824F00C
:1057C0001005022DB2D057004FF0030C05F1FF3A3F
:1057D000D0F800B00CFA07FC04F00305BAF1010F91
:1057E0002BEA0C0B05FA07F545EA0B056FEA0C0BE3
:1057F00005608D6805FA07FCC0D9C6680BEA060586
:1058000045EA0C05C560E500CFD5454E22F00307FB
:105810004FF00F0CD6F8F45007F1B04745F00205F1
:1058200007F58067C6F8F450D6F8F45002F0030686
:1058300005F00205B60003950CFA06FC039DBD6851
:1058400025EA0C0A374DA8425ED0374DA8422DD02C
:10585000DFF8D8C0604500F04281DFF8D4C0604571
:1058600000F04481DFF8CCC0604500F03181DFF802
:10587000C8C0604500F04181DFF8C0C0604500F05D
:105880004381DFF8BCC0604500F04581DFF8B4C05B
:1058900060450CBF4FF0090C4FF00A0C0CFA06F6ED
:1058A0004AEA060508E005B0BDE8F08F4FF0020CAB
:1058B0000CFA06F64AEA0605BD606FEA0906DEF84C
:1058C0008050E70354BF354049EA0505A703CEF8E9
:1058D0008050DEF8845054BF354049EA0505E702A0
:1058E000CEF88450DEF8005054BF354049EA050533
:1058F000A402CEF80050DEF8045054BF354049EA07
:105900000505CEF8045050E708FA06F64AEA0605FF
:10591000D2E7DFF80CB04FF0B0467BE00000025851
:10592000004402580004025800080258000C0258B3
:10593000001002580014025800180258001C0258A7
:1059400000200258002402580CF1FF374FEA420EA3
:10595000D0F800A004F003080197032708FA0EF816
:1059600007FA0EFC2AEA0C0A6FEA0C0C48EA0A084D
:10597000C0F800808F6807FA0EF8019F012F40F2EF
:105980008180C56805EA0C0545EA0805C560E500A3
:105990003BD5DBF8F45022F0030C0F2745F002054D
:1059A0000CF1B04CCBF8F4500CF5806CDBF8F450F3
:1059B00005F002050395039D02F00305DCF808E0FD
:1059C000AD0007FA05F5E7032EEA0505CCF8085007
:1059D0006FEA090CD6F8805077D405EA0C05A703C6
:1059E000C6F88050D6F884506CD40CEA0505E7025E
:1059F000C6F88450356862D40CEA0505A702356004
:105A0000756859D40CEA05057560013233FA02F461
:105A10003FF449AF012404FA02F513EA0509F4D072
:105A20004C6824F0100CBCF1020F8DD102F0070C71
:105A30000F694FEAD20E4FEA8C0C00EB8E0E07FA7C
:105A40000CF90F27DEF8208007FA0CFC032728EA60
:105A50000C0849EA0808CEF820804FEA420ED0F838
:105A6000009004F0030807FA0EFC08FA0EF829EA81
:105A70000C096FEA0C0C48EA0908C0F800808F682E
:105A800007FA0EF8D0F808902409CF6809EA0C0943
:105A9000944007FA0EFE4EEA090EC0F808E0D0F86E
:105AA00004E02EEA05052C434460C46804EA0C04B3
:105AB00044EA0804C460A8E749EA0505A4E749EAFE
:105AC00005059BE749EA050591E749EA050586E7EB
:105AD0004FF0050C0CFA06F64AEA0605ECE603253B
